:020000040800F2
:10000000FCFF0020B9140000B1140000B11400007E
:10001000B1140000B1140000B1140000B1140000CC
:10002000B1140000B1140000B1140000B1140000BC
:10003000B1140000B1140000B1140000B1140000AC
:10004000B1140000B1140000B1140000B11400009C
:10005000B1140000B1140000B1140000B11400008C
:10006000B1140000B1140000B1140000B11400007C
:10007000B1140000B1140000B1140000B11400006C
:10008000B1140000B1140000B1140000B11400005C
:10009000B1140000B1140000B1140000B11400004C
:1000A000B1140000B1140000B1140000B11400003C
:1000B000B1140000B1140000B1140000B11400002C
:1000C000B1140000B1140000B1140000B11400001C
:1000D000B1140000B1140000B1140000B11400000C
:1000E000B1140000B1140000B1140000B1140000FC
:1000F000B1140000B1140000B1140000B1140000EC
:10010000B1140000B1140000B1140000B1140000DB
:10011000B1140000B1140000B1140000B1140000CB
:10012000B1140000B1140000B1140000B1140000BB
:10013000B1140000B1140000B1140000B1140000AB
:10014000B1140000B1140000B1140000B11400009B
:1001500001480068704700BF1C00002083B0CDF844
:1001600000E000F0FF031A09104603F00F021346E7
:1001700014E0194A02921FE0184A02921CE0184A41
:10018000029219E0174A029216E0174A029213E00F
:10019000164A029210E0164A02920DE00028E8D0BA
:1001A0000128E9D00228EAD00328EBD00428ECD0BB
:1001B0000528EDD00628EED0012212B29A40ADF803
:1001C000042002980A46BDF8041000F08BFADDF80E
:1001D00000E003B0704700BF00080140000C014080
:1001E000001001400014014000180140001C0140B3
:1001F0000020014081B0194900EA010108460022AF
:100200000EE0042022E0082020E010201EE0202044
:100210001CE040201AE0802018E040F2001015E0B9
:100220000F498842EDD00F498842ECD00E498842F0
:10023000EBD00E498842EAD00D498842E9D00D49F9
:100240008842E8D00C498842E7D010460B4909683B
:1002500041EA000209490A6001B0704700FCFFFF53
:1002600000080140000C0140001001400014014052
:1002700000180140001C01400020014018100240FD
:1002800082B0CDF800E0034619460191FFF760FF08
:1002900040F2E83100FB01F201990A601F49097838
:1002A000C1F30311C8B21E4909180878C0B21A1D5B
:1002B0001968C140116019490988C1F3022188B247
:1002C000174909180878C0B203F20802191D096815
:1002D000C140116011490988C1F3C22188B2104997
:1002E00009180878C0B203F20C02191D0968C14050
:1002F00011600A490988C1F3813188B20949091896
:100300000978C8B203F2100203F20C010968B1FBCC
:10031000F0F11160DDF800E002B070470410024017
:1003200028180000440B000081B0CDF800E0012245
:1003300052B23E490A6000F268010B686FF000613A
:1003400003EA0102144603F00061C90E0B4602F0F5
:100350000041B1F1004F02D135490A6801E0354949
:100360000A6804F47021090C0E464FF6FF7104EA86
:1003700001010D4604F44011B1F5401F0DD16FF09D
:10038000706102EA01010E462A490A686FF0706145
:100390000A4028490A60324616E004F48011B1F59B
:1003A000801F09D14FF00301B140C94302EA0101A6
:1003B00041F070610A4607E0610D090105FA01F19B
:1003C000C9430A4042F070622BB1610D090105FA80
:1003D00001F10A43FFE704F00041B1F1004F02D1FF
:1003E00013490A6001E013490A6040F2000A81469D
:1003F0004FEA8A0109EB01010968B1F1FF3F10D012
:1004000009F134014FEA8A03C91809680A4609EB61
:100410000301096808461146FFF7A0FE0AF1010A28
:10042000E6E7DDF800E001B0704700BF000342429C
:100430001C0001400400014089B0CDF800E0834673
:1004400098B28C46BDF824100A9E04ACADF8041096
:10045000ADF808002046FFF713FFBDF80800BDF80F
:100460000410644CA34512D101256DB2624C256085
:10047000624D634C2560634D634C2560634D644C55
:100480002560644D644C2560079C039456E0634CE2
:10049000A34512D101256DB2614C2560614D584CC8
:1004A0002560614D584C2560604D594C2560604D6C
:1004B000594C2560069C039440E05E4CA34512D144
:1004C00001256DB25C4C25605C4D4D4C25605C4D4A
:1004D0004D4C25605B4D4E4C25605B4D4E4C256070
:1004E000069C03942AE0594CA34512D101256DB214
:1004F000574C2560574D424C2560574D424C256066
:10050000564D434C2560564D434C2560069C039444
:1005100014E0544CA34511D101256DB2524C256015
:10052000524D374C2560524D374C2560514D384C5B
:100530002560514D384C2560069C0394ADF804109D
:10054000ADF808003046FFF7EFFEBDF80800BDF833
:1005500004100BF1100500242C600BF110052C6821
:100560000C432C600BF10C0500242C6018B140F4F6
:10057000806080B2FFE70BF10C052C6804432C600F
:100580000BF10C060125346865F34D3434600BF132
:100590000C060125346865F3C30434600BF10C06C6
:1005A0000125346865F3820434600BF114050024DE
:1005B0002C60039D192465434FEA8C04B5FBF4F7C6
:1005C0006424B7FBF4F42601350964246C433C1B16
:1005D000240104F232056424B5FBF4F404F00F04A2
:1005E00046EA04040BF10805A4B22C60DDF800E033
:1005F00009B070470038014038034242350A000014
:1006000028000020FFFFFFFF2C000020FFFFFFFF5E
:1006100030000020FFFFFFFF3400002000440040B6
:10062000C4034242510A0000FFFFFFFFFFFFFFFF2C
:10063000FFFFFFFF00480040C80342423D090000A1
:10064000FFFFFFFFFFFFFFFFFFFFFFFF004C00402A
:10065000CC034242A9090000FFFFFFFFFFFFFFFF9D
:10066000FFFFFFFF00500040D0034242C5090000D9
:10067000FFFFFFFFFFFFFFFFFFFFFFFF81B000F263
:100680000C02116000F208021368C3F3000202B901
:10069000F8E700F20C02126890B201B07047FFFF59
:1006A00081B000230360CB009BB242EA03030468DD
:1006B0009BB244EA03030360051D13141C462B6818
:1006C00064F382032B6000F21C0500242B6864F3A2
:1006D000CB232B600124036864F38613036001B00D
:1006E0007047FFFF81B0CDF800E08CB21546774B24
:1006F00000EA03031E461846FFF77CFDB4F1FF0F26
:100700000CD1734B9D4203D14FF033333360D9E0AA
:10071000422D03D14FF044333360D3E04FF6FF73E3
:100720009C4214D16A4B9D4207D14FF03333336062
:10073000341D4FF033332360C4E0422D07D14FF016
:1007400044333360341D4FF044332360BAE000215A
:10075000002005F001030BB100211DE005F00203AC
:1007600033B105F4C0730BB1082100E0042113E09C
:1007700005F0040333B105F020030BB1042100E0C0
:10078000002109E005F0080333B105F020030BB1A7
:100790000C2100E00821FFE74E4B05EA03030BB1F3
:1007A000032009E005F400730BB1022004E005F416
:1007B00080630BB10120FFE705F00C030BB101438F
:1007C000FFE704F0FF039BB2002B3BD0376800200B
:1007D0001FFA84F832462E4608282CD24FF0010327
:1007E00003FA00F408EA0403A34222D185004FF083
:1007F0000F03AB40DB4307EA030401FA05F344EAC5
:1008000003031D4606F48173B3F5817F05D102F21F
:1008100014044FF001038340236006F08203822B0F
:1008200005D102F210044FF00103834023602F46EC
:10083000FFE7401CD0E717601FFA88F00F463146EB
:10084000164602E00F462946A0B2B0F1FF0F39D993
:10085000331DD3F800800022082A30D202F20804A7
:100860004FF0010303FA04F400EA0403A34224D185
:1008700095004FF00F03AB40DB4308EA030807FA8B
:1008800005F348EA030801F48173B3F5817F07D1CA
:1008900006F2140502F208044FF00103A3402B6096
:1008A00001F08203822B07D106F2100502F2080440
:1008B0004FF00103A3402B60FFE7521CCCE7331D30
:1008C000C3F80080DDF800E001B0704700FCFFFFD6
:1008D000140008000008080081B0ADF800100146BF
:1008E000BDF800000B68C3F3C01202B9FAE70A1D95
:1008F000106001B07047FFFF81B0CDF800E081B219
:100900000348FFF7BBFEDDF800E001B0704700BF11
:100910000030014081B0CDF800E0019D2C4610B4BC
:1009200008B493B28AB201460348FFF785FD02B0CE
:10093000DDF800E001B070470048004081B0CDF81C
:1009400000E081B20348FFF7C7FFDDF800E001B027
:10095000704700BF0048004081B0CDF800E0019D25
:100960002C4610B408B493B28AB201460348FFF78C
:1009700063FD02B0DDF800E001B0704700440040C4
:1009800081B0CDF800E0019D2C4610B408B493B2BC
:100990008AB201460348FFF74FFD02B0DDF800E0E0
:1009A00001B070470038014081B0CDF800E081B25D
:1009B0000348FFF791FFDDF800E001B0704700BF8A
:1009C000004C004081B0CDF800E081B20348FFF751
:1009D00083FFDDF800E001B0704700BF0050004029
:1009E00081B0CDF800E081B20348FFF747FEDDF8A3
:1009F00000E001B0704700BF003C004081B0CDF87E
:100A000000E081B20348FFF739FEDDF800E001B0F5
:100A1000704700BF0038004081B0CDF800E0044AC4
:100A200089B2FFF75FFEDDF800E001B0704700BF5C
:100A30001400080081B0CDF800E081B20348FFF750
:100A40004BFFDDF800E001B0704700BF0038014007
:100A500081B0CDF800E081B20348FFF73DFFDDF83B
:100A600000E001B0704700BF0044004081B0CDF805
:100A700000E04FF0420289B2FFF734FEDDF800E0FB
:100A800001B0704783B0CDF800E08DF8040002910A
:100A90000B4C0C4B1C600C4C0C4B1C60012464B2C6
:100AA0000B4B1C601046FFF73FFC029A9DF80410A8
:100AB0000848FFF7F5FDDDF800E003B0704700BF20
:100AC000FFFFFFFF20000020E109000024000020BC
:100AD000BC034242003C004001490860704700BF2F
:100AE000AC01224201490860704700BFB0012242B8
:100AF00001490860704700BFB08122420149086087
:100B0000704700BFB081224201490860704700BFB2
:100B10009401214201490860704700BF8C012242C4
:100B200001490860704700BFA801224201490860DE
:100B3000704700BFB881224201490860704700BF7A
:100B400098812242020406084DF2BF47C0F2010715
:100B50007F1EFDD100BF00BF00BF00BF00BF7047B8
:100B600000F2300118310A6807490A600268074933
:100B70000A6000F208010A6805490A60011D0A6856
:100B800004490A60704700BF1800002010000020D0
:100B9000040000201400002083B0CDF800E08AB2E9
:100BA000014690B283B2421E90B26BB10A78D4B2C1
:100BB000ADF804000291A0B2054C2468A047029948
:100BC000BDF80400491CEDE7DDF800E003B0704714
:100BD00008000020FFFFFFFF44F67F77C0F21207F6
:100BE0007F1EFDD100BF00BF00BF00BF00BF704728
:100BF00001490860704700BF98812142014908609F
:100C0000704700BF94812242026803490A60011DB7
:100C10000A6802490A607047080000200C000020A2
:100C200001490860704700BF9C812142014908606A
:100C3000704700BF9C81214281B0CDF800E0094996
:100C400002B440F2000340F2000240F20001FFF75C
:100C500097FE01B0044A05490A600020DDF800E073
:100C600001B07047F0160000350A000000000020B7
:100C700081B0CDF800E0094902B440F2000340F22F
:100C8000000240F20001FFF767FE01B0044A054987
:100C90000A600020DDF800E001B070478416000013
:100CA000510A00000000002001490860704700BFA1
:100CB0009001214281B0CDF800E0094902B440F230
:100CC000000340F2000240F20001FFF745FE01B0D0
:100CD000044A05490A600020DDF800E001B07047D1
:100CE00084160000510A00000000002081B0CDF8F9
:100CF00000E0094902B440F2000340F2000240F271
:100D00000001FFF707FE01B0044A05490A60002010
:100D1000DDF800E001B07047181600003D09000042
:100D20000000002081B0CDF800E0A9E0012905D144
:100D300040F220016548FFF799FE04E040F22001EF
:100D40006248FFF769FEBBE0012905D140F20801C6
:100D50005F48FFF78BFE04E040F208015C48FFF7B4
:100D60005BFEADE0012905D144F200015948FFF7CF
:100D70007DFE04E044F200015648FFF74DFE9FE07F
:100D8000012905D140F200415148FFF76FFE04E010
:100D900040F200414E48FFF73FFE91E0012905D1A6
:100DA00040F600014A48FFF761FE04E040F600010A
:100DB0004748FFF731FE83E0012905D141F20001E8
:100DC0004348FFF753FE04E041F200014048FFF7BB
:100DD00023FE75E0012905D141F200013D48FFF7EE
:100DE00045FE04E041F200013A48FFF715FE67E0D6
:100DF000012905D140F600013648FFF737FE04E02F
:100E000040F600013348FFF707FE59E0012905D1FC
:100E100040F240012F48FFF729FE04E040F2400174
:100E20002C48FFF7F9FD4BE0012905D140F22001E4
:100E30002848FFF71BFE04E040F220012548FFF799
:100E4000EBFD3DE0012905D140F240012248FFF7CA
:100E50000DFE04E040F240011F48FFF7DDFD2FE0EA
:100E6000012905D140F280011B48FFF7FFFD04E096
:100E700040F280011848FFF7CFFD21E0012020E07B
:100E800000283FF453AF01283FF45EAF02283FF43F
:100E900069AF03283FF474AF04283FF47FAF0528FF
:100EA0003FF48AAF06283FF495AF0728A0D0082862
:100EB000ACD00928B8D00A28C4D00B28D0D0DDE7A0
:100EC0000020DDF800E001B0704700BF00080140DD
:100ED0000010014000140140000C014081B0CDF829
:100EE00000E0A9E0012905D140F210016548FFF7B3
:100EF000BDFD04E040F210016248FFF78DFDBBE04C
:100F0000012905D140F204015F48FFF7AFFD04E07D
:100F100040F204015C48FFF77FFDADE0012905D1F7
:100F200042F200015948FFF7A1FD04E042F200013E
:100F30005648FFF771FD9FE0012905D140F20041BD
:100F40005148FFF793FD04E040F200414E48FFF79F
:100F500063FD91E0012905D140F600014A48FFF701
:100F600085FD04E040F600014748FFF755FD83E0AA
:100F7000012905D141F200014348FFF777FD04E064
:100F800041F200014048FFF747FD75E0012905D116
:100F900040F201013B48FFF769FD04E040F2010126
:100FA0003848FFF739FD67E0012905D140F20041DB
:100FB0003648FFF75BFD04E040F200413348FFF79D
:100FC0002BFD59E0012905D140F200212F48FFF700
:100FD0004DFD04E040F200212C48FFF71DFD4BE0E1
:100FE000012905D140F200112848FFF73FFD04E038
:100FF00040F200112548FFF70FFD3DE0012905D122
:1010000040F240012248FFF731FD04E040F2400188
:101010001F48FFF701FD2FE0012905D140F28001B3
:101020001B48FFF723FD04E040F280011848FFF75A
:10103000F3FC21E0012020E000283FF453AF012819
:101040003FF45EAF02283FF469AF03283FF474AF6A
:1010500004283FF47FAF05283FF48AAF06283FF409
:1010600095AF0728A0D00828ACD00928B8D00A2806
:10107000C4D00B28D0D0DDE70020DDF800E001B0BF
:10108000704700BF000801400010014000140140FB
:10109000000C014081B0CDF800E0011D0A68016834
:1010A000C8B21146034AFFF7EDFC0020DDF800E06E
:1010B00001B070475C17000081B0CDF800E0011D61
:1010C0000A680168C8B21146034AFFF7DBFC00203A
:1010D000DDF800E001B070475C17000001490860CE
:1010E000704700BF8801224201490860704700BF75
:1010F000A881224201490860704700BF8001214257
:1011000001490860704700BFB001224201490860F0
:10111000704700BF9881214201490860704700BFB5
:10112000A081224201490860704700BFA481224289
:1011300001490860704700BFAC01224201490860C4
:10114000704700BFA801224201490860704700BFF4
:10115000B481224281B0CDF800E003460846FFF793
:1011600053FD1846FFF7FCFC0120034C2468A04700
:10117000DDF800E001B070470400002081B0CDF838
:1011800000E08B4609E05846FFF796FF0AE0584614
:10119000FFF780FF06E0012004E00028F3D00128DB
:1011A000F5D0F8E7DDF800E001B0704781B0CDF888
:1011B00000E05FFA81F95FFA82FA0FE05FFA8AF1E4
:1011C0005FFA89F0FFF78AFE0DE05FFA8AF15FFAB5
:1011D00089F0FFF7A7FD06E0012004E00028EDD02C
:1011E0000128F2D0F8E7DDF800E001B07047FFFF1A
:1011F00081B0CDF800E001200B4C2468A047FFF738
:10120000A3FC0020084C2468A047FFF7E5FCFFF78B
:10121000E3FC0120044C2468A047FFF7DDFCDDF867
:1012200000E001B0704700BF1400002081B0CDF88D
:1012300000E00120034C2468A047DDF800E001B085
:10124000704700BF1000002082B0CDF800E001AB75
:1012500000211970591C08709A1C20211170D91C8A
:1012600008700020074C2468A04701A90846042103
:10127000FFF792FC0120034C2468A047DDF800E052
:1012800002B070470400002081B0CDF800E011E00A
:101290000846FFF72BFD16E00846FFF7E9FC12E0D1
:1012A0000846FFF7C9FC0EE00846FFF703FD0AE019
:1012B000012008E00028EBD00128EDD02028EFD055
:1012C0003028F1D0F4E7DDF800E001B07047FFFF0F
:1012D00081B04FF000094FF0000CBDEB0A0F04DCA9
:1012E000BDEB0B0F01DBD446EA464BF8049BBBEB8E
:1012F0000A0FFAD1BCEB0A0F05DDE246D9F800B0BF
:101300000BF1040BF1E701B07047FFFF81B0154806
:10131000006840F00101134801601349134801605F
:1013200010480168124801400E4801600D480168EC
:101330006FF4802001400B4801600C4801686FF495
:10134000FE00014009480160064801686FF0A050A6
:101350000140044801604FF000010648016001B0FF
:10136000704700BF001002400000FFF00410024070
:10137000FFFFF6FE2C10024081B01CF8019B0BF819
:10138000019BBBEB0A0FF8D101B07047FFFFFFFFD5
:1013900081B0CDF800E01120FFF756FF43F2FF5770
:1013A000C0F26E1700BF00BF7F1EFDD100BF00BF9F
:1013B00000BF5020FFF748FF43F2FF57C0F26E17FF
:1013C0007F1EFDD100BF00BF00BF00BF00BFB72020
:1013D000FFF73AFF43F2FF57C0F26E1700BF00BF9E
:1013E0007F1EFDD100BF00BF00BF5020FFF72CFFC4
:1013F00043F2FF57C0F26E177F1EFDD100BF00BF42
:1014000000BF00BF00BFDDF800E001B07047FFFF84
:1014100081B0CDF800E006490648FFF79BFEFFF7D4
:1014200005FFFFF7E5FEDDF800E001B0704700BF03
:1014300040180000C817000081B0CDF800E001227C
:1014400006210020FFF7B2FE002200210020FFF756
:10145000ADFE002201210020FFF7A8FE002202219C
:101460000020FFF7A3FE0C4801460020FFF786FE90
:1014700042F280512020FFF707FF44F67F77C0F249
:1014800012077F1EFDD100BF00BF00BF00BF00BF1D
:10149000DDF800E001B070473818000081B0024963
:1014A0000248016001B07047401901001C00002093
:1014B00081B0FEE701B0704700F00CF800F0C4F90D
:1014C000FFF7ECFFFFF7B8FFFFF7A2FFFFF760FFA2
:1014D000FCE7FEE781B0CDF800E0464A464B474CBA
:1014E00047494BF68030814206D94648006840F0B3
:1014F00002014448016011E045F6C050814206D91E
:101500004048006840F001013E48016006E03D4867
:1015100001686FF0070001403A480160FFF7F6FEEE
:101520003948036039480460394802EA0001394803
:10153000016002F0010040B119463648006800F031
:101540000200002800D1F8E700E0194602F48030DC
:1015500040B10B462F48006800F40030002800D14D
:10156000F8E700E00B4602F0805068B129480068B7
:1015700040F08051274801602648006800F0005084
:10158000002800D1F8E7FFE702F0806078B1214839
:10159000006840F080611F48016011461A461D48EE
:1015A000006800F00060002800D1F8E701E0114673
:1015B0001A4601F0807070B11648006840F08071E2
:1015C0001448016011461348006800F0007000B92B
:1015D000F9E70A46FFE70C48006800F00C019000AC
:1015E00000F00C00814200D0F5E7DDF800E001B02A
:1015F000704700BF8100010502841D004406010000
:101600004019010000200240041002402C1002404A
:10161000FFFF0F00001002403800000039000000FA
:10162000FFFFFFFF000000000000000000000000BE
:1016300000000000000000000000000000000000AA
:10164000000000000000000000000000180800007A
:101650001800000000000000000000000000000072
:10166000000000000000000000000000000000007A
:10167000000000000000000000000000000000006A
:10168000300014083500000036000000FFFFFFFFA7
:10169000000000000000000000000000000000004A
:1016A000000000000000000000000000000000003A
:1016B00000000000000000001808000018000000F2
:1016C000000000000000000000000000000000001A
:1016D000000000000000000000000000000000000A
:1016E00000000000000000000000000008000008EA
:1016F000090000000A000000FFFFFFFF00000000DB
:1017000000000000000000000000000000000000D9
:1017100000000000000000000000000000000000C9
:101720000000000018080000180000000000000081
:1017300000000000000000000000000000000000A9
:101740000000000000000000000000000000000099
:101750000000000000000000040000002A0000005B
:101760002B0000002C000000FFFFFFFF0000000026
:101770000000000000000000000000000000000069
:101780000000000000000000000000000000000059
:1017900018080000180800001808000000000000E9
:1017A0000000000000000000000000000000000039
:1017B0000000000000000000000000000000000029
:1017C0000000000000112008A90C0000DD1000003E
:1017D000491100003D11000031110000011100000D
:1017E000F5100000E910000025110000191100009B
:1017F0000D1100002D0C0000FFFFFFFFFFFFFFFF9A
:10180000FFFFFFFFFFFFFFFFFFFFFFFFFFFFFFFFE8
:10181000FFFFFFFFFFFFFFFFFFFFFFFFFFFFFFFFD8
:10182000FFFFFFFFFFFFFFFF0000000001020304B6
:101830000102030406070809030000000403000076
:10184000E1090000FFFFFFFF00B5DFF810B0DFF88F
:1018500010A0FFF73DFD00BD704700BF0000002055
:1018600038000020FFFFFFFFFFFFFFFFFFFFFFFF2C
:00000001FF
