:10000000FCFF0220151B0000CD1A0000CD1A0000D5
:10001000CD1A0000CD1A0000CD1A0000CD1A000044
:10002000CD1A0000CD1A0000CD1A0000CD1A000034
:10003000CD1A0000CD1A0000CD1A0000CD1A000024
:10004000CD1A0000CD1A0000CD1A0000CD1A000014
:10005000CD1A0000CD1A0000CD1A0000CD1A000004
:10006000CD1A0000CD1A0000CD1A0000CD1A0000F4
:10007000CD1A0000CD1A0000CD1A0000CD1A0000E4
:10008000CD1A0000CD1A0000CD1A0000CD1A0000D4
:10009000CD1A0000CD1A0000CD1A0000CD1A0000C4
:1000A000CD1A0000CD1A0000CD1A0000CD1A0000B4
:1000B000CD1A0000CD1A0000CD1A0000CD1A0000A4
:1000C000CD1A0000CD1A0000CD1A0000CD1A000094
:1000D000CD1A0000CD1A0000CD1A0000CD1A000084
:1000E000CD1A0000CD1A0000CD1A0000CD1A000074
:1000F000CD1A0000CD1A0000CD1A0000CD1A000064
:10010000CD1A0000CD1A0000CD1A0000CD1A000053
:10011000CD1A0000CD1A0000CD1A0000CD1A000043
:10012000CD1A0000CD1A0000CD1A0000CD1A000033
:10013000CD1A0000CD1A0000CD1A0000CD1A000023
:10014000CD1A0000CD1A0000CD1A0000CD1A000013
:10015000CD1A0000CD1A0000CD1A0000CD1A000003
:10016000CD1A0000CD1A0000CD1A0000CD1A0000F3
:10017000CD1A0000CD1A0000CD1A0000CD1A0000E3
:10018000CD1A0000CD1A0000CD1A0000CD1A0000D3
:08019000CD1A0000CD1A000099
:101B140000F00EF8FFF7DCFF00F0D8FBFFF7EEFF54
:101B2400FFF74CFFFFF7BCFFFFF77AFFFCE7FEE788
:1019840081B04FF000094FF0000CBDEB0A0F04DCEE
:10199400BDEB0B0F01DBD446EA464BF8049BBBEBD3
:1019A4000A0FFAD1BCEB0A0F05DDE246D9F800B004
:0A19B4000BF1040BF1E701B07047DE
:1019C00081B0CDF800E0012206210020FFF708FFDA
:1019D000002200210020FFF703FF00220121002048
:1019E000FFF7FEFE002202210020FFF7F9FE0C485F
:1019F00001460020FFF71EFF42F280510120FFF751
:101A000077FF40F6FE07C0F23D0700BF00BF7F1E14
:101A1000FDD100BF00BF00BFDDF800E001B070479E
:041A2000C0220000E0
:1017E00081B0CDF800E05FFA81F85FFA82F916E087
:1017F0005FFA89F15FFA88F0FFF762FC16E05FFAA2
:1018000089F15FFA88F0FFF775FD0FE05FFA89F163
:101810005FFA88F0FFF788FE08E0012006E0002864
:10182000E6D00128EBD00228F0D0F6E7DDF800E0A2
:0418300001B070474C
:1010C00081B0CDF800E0A9E0012905D14FF004017D
:1010D0006548FFF735FE04E04FF004016348FFF771
:1010E00013FFBBE0012905D14FF400615E48FFF713
:1010F00027FE04E04FF400615C48FFF705FFADE018
:10110000012905D14FF010015948FFF719FE04E0FD
:101110004FF010015748FFF7F7FE9FE0012905D176
:101120004FF020015248FFF70BFE04E04FF0200182
:101130005048FFF7E9FE91E0012905D14FF0800109
:101140004B48FFF7FDFD04E04FF080014948FFF7F1
:10115000DBFE83E0012905D14FF040014448FFF751
:10116000EFFD04E04FF040014248FFF7CDFE75E08F
:10117000012905D14FF480613F48FFF7E1FD04E00C
:101180004FF480613D48FFF7BFFE67E0012905D1BC
:101190004FF400513448FFF7D3FD04E04FF4005101
:1011A0003248FFF7B1FE59E0012905D14FF00401A3
:1011B0003348FFF7C5FD04E04FF004013148FFF765
:1011C000A3FE4BE0012905D14FF008012C48FFF7A1
:1011D000B7FD04E04FF008012A48FFF795FE3DE017
:1011E000012905D14FF480712548FFF7A9FD04E0DE
:1011F0004FF480712348FFF787FE2FE0012905D1C6
:101200004FF400711E48FFF79BFD04E04FF400719E
:101210001C48FFF779FE21E0012020E000283FF480
:1012200053AF01283FF45EAF02283FF469AF0328B3
:101230003FF474AF04283FF47FAF05283FF48AAF32
:1012400006283FF495AF0728A0D00828ACD009287D
:10125000B8D00A28C4D00B28D0D0DDE70020DDF8B4
:1012600000E001B0704700BF50F00F4040F00F4069
:1012700090F00F4080F00F4010F00F4000F00F4052
:08128000D0F00F40C0F00F4058
:100D400081B0CDF800E0034AFFF714FFDDF800E0C2
:080D500001B07047040102002C
:100B740081B0CDF800E0FFF76BFEDDF800E001B0D6
:020B84007047B8
:1008540083B0CDF800E006460C4615463046FFF757
:1008640047FE40F2FF1306EA0300800900262246F1
:100874002946202E39D24FF0010303FA06F402EA86
:1008840004031F46A3422ED104031A4B1C19B300C0
:10089400E51801952C68184B04EA03032B60174BE9
:1008A40001EA0304019B1B6843EA0404019B1C60E6
:1008B40001F48033B3F5803F15D08401104B1B192C
:1008C4001433029301F400333BB1FC43029B1B68D5
:1008D40003EA0404029B1C6005E0029B1B6843EAD4
:1008E4000704029B1C60761CC3E7DDF800E003B03C
:1008F400704700BF009004400000FFFFFFFF0000AE
:0409040000F00F40B0
:1004F40081B040F2FF1100EA01018909084600F2C7
:1005040009024FF0010101FA02F20449096841EAC3
:10051400020202490A6001B0704700BF38800440FB
:100F080081B0CDF800E0034AFFF730FEDDF800E0DD
:080F180001B070470401040060
:1012F40081B0CDF800E0A9E0012905D14FF0080143
:101304006548FFF71BFD04E04FF008016348FFF751
:10131400F9FDBBE0012905D14FF400215E48FFF738
:101324000DFD04E04FF400215C48FFF7EBFDADE058
:10133400012905D14FF008015948FFF7FFFC04E0EB
:101344004FF008015748FFF7DDFD9FE0012905D163
:101354004FF020015248FFF7F1FC04E04FF0200168
:101364005048FFF7CFFD91E0012905D14FF08001EE
:101374004B48FFF7E3FC04E04FF080014948FFF7D6
:10138400C1FD83E0012905D14FF040014448FFF736
:10139400D5FC04E04FF040014248FFF7B3FD75E08F
:1013A400012905D14FF400613F48FFF7C7FC04E071
:1013B4004FF400613D48FFF7A5FD67E0012905D121
:1013C4004FF480713448FFF7B9FC04E04FF48071A6
:1013D4003248FFF797FD59E0012905D14FF48031D8
:1013E4002F48FFF7ABFC04E04FF480312D48FFF7A2
:1013F40089FD4BE0012905D14FF400312848FFF75E
:101404009DFC04E04FF400312648FFF77BFD3DE0EE
:10141400012905D14FF480712548FFF78FFC04E0C2
:101424004FF480712348FFF76DFD2FE0012905D1AA
:101434004FF400711E48FFF781FC04E04FF4007183
:101444001C48FFF75FFD21E0012020E000283FF465
:1014540053AF01283FF45EAF02283FF469AF03287D
:101464003FF474AF04283FF47FAF05283FF48AAFFC
:1014740006283FF495AF0728A0D00828ACD0092847
:10148400B8D00A28C4D00B28D0D0DDE70020DDF87E
:1014940000E001B0704700BF50F00F4040F00F4033
:1014A40090F00F4080F00F4010F00F4000F00F401C
:0814B400D0F00F40C0F00F4022
:1015280081B0CDF800E0A9E0012905D14FF04001D4
:101538006548FFF701FC04E04FF040016348FFF7FE
:10154800DFFCBBE0012905D14FF480615E48FFF75D
:10155800F3FB04E04FF480615C48FFF7D1FCADE099
:10156800012905D14FF004015948FFF7E5FB04E0D4
:101578004FF004015748FFF7C3FC9FE0012905D14C
:101588004FF020015248FFF7D7FB04E04FF020014D
:101598005048FFF7B5FC91E0012905D14FF08001D3
:1015A8004B48FFF7C9FB04E04FF080014948FFF7BB
:1015B800A7FC83E0012905D14FF040014448FFF71B
:1015C800BBFB04E04FF040014248FFF799FC75E08F
:1015D800012905D14FF010013F48FFF7ADFB04E0AA
:1015E8004FF010013D48FFF78BFC67E0012905D15A
:1015F8004FF080013448FFF79FFB04E04FF0800173
:101608003248FFF77DFC59E0012905D14FF48031BC
:101618002F48FFF791FB04E04FF480312D48FFF786
:101628006FFC4BE0012905D14FF400312848FFF742
:1016380083FB04E04FF400312648FFF761FC3DE0EE
:10164800012905D14FF480712548FFF775FB04E0A7
:101658004FF480712348FFF753FC2FE0012905D18F
:101668004FF400711E48FFF767FB04E04FF4007168
:101678001C48FFF745FC21E0012020E000283FF44A
:1016880053AF01283FF45EAF02283FF469AF032847
:101698003FF474AF04283FF47FAF05283FF48AAFC6
:1016A80006283FF495AF0728A0D00828ACD0092811
:1016B800B8D00A28C4D00B28D0D0DDE70020DDF848
:1016C80000E001B0704700BF50F00F4040F00F40FD
:1016D80090F00F4080F00F4010F00F4000F00F40E6
:0816E800D0F00F40C0F00F40EC
:1018340081B0CDF800E00DE00846FFF73DFE10E072
:101844000846FFF74BFE0CE00846FFF759FE08E098
:10185400012006E00028EFD00128F1D00228F3D0BF
:0A186400F6E7DDF800E001B0704780
:1014BC0081B0CDF800E0011D0A68016808461146AC
:1014CC00034AFFF7C7FC0020DDF800E001B07047CD
:0414DC00602000008C
:100E600081B0CDF800E003460C4615460648FFF772
:100E700015FF224619462B460348FFF795FEDDF87D
:0C0E800000E001B0704700BF00C002405D
:100C9C0081B00F49884206D10E4A0F490A600F4AAB
:100CAC000F490A6012E00F49884206D10E4A0A49E0
:100CBC000A600E4A0A490A6008E00D49884205D1CB
:100CCC000C4A05490A600C4A05490A6001B0704794
:100CDC0000C00240AD0E00002000FF1FFFFFFFFF11
:100CEC002400FF1F00D002408D0E0000FFFFFFFF0D
:0C0CFC0000C00A40250E0000FFFFFFFFB3
:100BA80084B0CDF800E0039101461046019002910F
:100BB8001846FFF7B3FC0299019800F010042409C5
:100BC8002346019002910846FFF7A0FD0299029181
:100BD8000846FFF767FD0299019800F000450C6888
:100BE8002C430C6000F080450C682C430C600C68AA
:100BF80044F440540C600D686FF4804405EA040422
:100C08000C6001F20C059C002E1900F00F053468E9
:100C18002C43346001F20C059C002E1900F080650D
:100C280034682C43346001F20C059C002E1900F046
:100C3800007534682C43346001F20C059C002E19B1
:100C480000F0807534682C43346001F20C059C0078
:100C58002E1935686FF0F04405EA0404346001F297
:100C68000C059C002E1900F00F04E50634682C438F
:100C780034600191039A0846D9B2FFF775FC0199CF
:100C88000D686FF0010405EA04040C60DDF800E06B
:040C980004B07047ED
:1005240081B0CDF800E040F2000C83464FEA8C0124
:100534000BEB01010968B1F1FF3F12D00BF134015B
:100544004FEA8C03C91809680A460BEB03010968D2
:1005540008461146FFF760FF0CF1010C1FFA8CFCF2
:0A056400E4E7DDF800E001B07047A5
:10041C0082B0CDF800E080464FEA581202F0070295
:10042C00914608F01F04A24693010D4AD3184FF0D1
:10043C000102A240019218460A46019900F094FB71
:10044C004FEA0933074AD3184FEA8A029C1808F47A
:10045C00E06322681A432260DDF800E002B07047C6
:08046C0000F00F400090044075
:1007140081B00B49884203D1012252B209490A60CF
:100724000949884203D1012252B208490A600849A2
:10073400884203D1012252B206490A6001B07047CF
:1007440000C00240B007904200D00240B40790427B
:0807540000C00A40300690428B
:1006AC0081B002686FF4804102EA010101600168C7
:1006BC0041F00101016000F22C021149116000F2BD
:1006CC0008020021116000F20C024FF0F0411160A1
:1006DC0000F210024FF0F041116000F230020021E4
:1006EC00116000F2340200211160016841F4406194
:1006FC0001600268034942EA0101016001B07047E0
:08070C0000000A9A0140000000
:1005700091B0CDF800E00F9010468DF840100E902D
:1005800001AB1846FFF776FF4FF0FF330D930023C2
:1005900006930023089301230A9300230B9300235F
:1005A0000593059B042B41D20D9B002B3ED00023CD
:1005B0000793079B102B35D20D9B002B32D00123C4
:1005C0000993099B032B29D20D9B3BB3099C029BEA
:1005D00003FB04F6059B9C00314B1B191D68079B10
:1005E0009C00304B1B191B686B43B6FBF3F4204691
:1005F0000E9BA3420ED30E9B1C1A0C940D9BA34280
:1006000008D90C9B0D93059B0693079B08930B90B1
:10061000099B0A93099B5B1C0993D2E7079B5B1C10
:100620000793C6E7059B5B1C0593BAE70F9B03F294
:100630000C049DF840309B00E5182C681A4B04EA26
:1006400003032B600F9B03F20C049DF840309B00CA
:10065000E5180A9B5B1EDC072B6823432B600F9B6E
:1006600003F20C049DF840309B00E518069B1B0428
:1006700003F440342B6823432B600F9B03F20C04DC
:100680009DF840309B00E518089B03F00F042B6891
:1006900023432B600B98DDF800E011B0704700BFDA
:0C06A000B022000070220000F0FFFC7F80
:1004740081B0CDF800E00446FFF7C8FF40F2E83150
:1004840000FB01F3194909680A0F1849096801F0CA
:100494007061090EC8B21549096801F47001090DAB
:1004A400CDB21249096801F47021090CCEB2D1B25F
:1004B400491C09B259430F462360221D411C09B24D
:1004C400B7FBF1F1116004F20802691C09B2B7FB31
:1004D400F1F1116004F20C02711C09B2B7FBF1F1E5
:1004E4001160DDF800E001B0704700BF44800440B3
:0C04100001480068704700BF1C00FF1F7F
:1014E00081B0CDF800E0011D0A6801680846114688
:1014F000034AFFF7B5FC0020DDF800E001B07047BB
:041500006020000067
:1015040081B0CDF800E0011D0A6801680846114663
:10151400034AFFF7A3FC0020DDF800E001B07047A8
:041524006020000043
:1018F00081B0CDF800E011E00846FFF70BFF16E0DD
:101900000846FFF7F5FE12E00846FFF7CFFC0EE0B1
:101910000846FFF7B9FC0AE0012008E00028EBD0F8
:101920000128EDD00228EFD01028F1D0F4E7DDF83F
:0619300000E001B0704769
:1017140081B0CDF800E0FFF7D7FB044A04490A6022
:101724000020DDF800E001B0704700BF090D0000A3
:041734000000FF1F93
:100ECC0081B0CDF800E003460A48FFF791FD0A4ACD
:100EDC0040F2000104B402B440F20002194640F2A0
:100EEC0000030448FFF754FD02B0DDF800E001B048
:0C0EFC00704700BF00C00640A4210000A9
:1009FC0081B0304988420CD12F4A30490A60304AC4
:100A0C0030490A60304A31490A60314A31490A603A
:100A1C004EE0314988420CD1304A28490A60304AAC
:100A2C0028490A602F4A29490A602F4A29490A6035
:100A3C003EE02E4988420CD12D4A20490A602D4AAD
:100A4C0020490A602C4A21490A602C4A21490A6033
:100A5C002EE02B4988420CD12A4A18490A602A4AAE
:100A6C0018490A60294A19490A60294A19490A6031
:100A7C001EE0284988420CD1274A10490A60274AAF
:100A8C0010490A60264A11490A60264A11490A602F
:100A9C000EE0254988420BD1244A08490A60244AB1
:100AAC0008490A60234A09490A60234A09490A602D
:100ABC0001B0704700A00640450E00002800FF1F43
:100ACC00FFFFFFFF2C00FF1FFFFFFFFF3000FF1F8A
:100ADC00FFFFFFFF3400FF1F00B00640250D000094
:100AEC00FFFFFFFFFFFFFFFFFFFFFFFF00C0064000
:100AFC00090D0000FFFFFFFFFFFFFFFFFFFFFFFFE0
:100B0C0000D00640ED0D0000FFFFFFFFFFFFFFFFD1
:100B1C00FFFFFFFF00A00E40090E0000FFFFFFFFCC
:100B2C00FFFFFFFFFFFFFFFF00B00E40D10D0000E5
:0C0B3C00FFFFFFFFFFFFFFFFFFFFFFFFB9
:10099C0085B0CDF800E001900291ADF80C20ADF8D7
:1009AC001030BDF81440ADF814400698FFF7B4FDB4
:1009BC000198FFF7FFFE02990198FFF7AFFFBDF812
:1009CC000C100198FFF79AFFBDF810100198FFF773
:1009DC00C5FEBDF814100198FFF7BAFE0198FFF799
:1009EC00E1FE0198FFF7D6FEDDF800E005B0704798
:1007C00081B01849884204D1012252B216490A6008
:1007D00026E01649884204D1012252B214490A6027
:1007E0001EE01449884204D1012252B212490A6023
:1007F00016E01249884204D1012252B210490A601F
:100800000EE01049884204D1012252B20E490A601A
:1008100006E00E49884203D1012252B20C490A6017
:1008200001B0704700A00640A806904200B0064004
:10083000AC06904200C00640B006904200D0064090
:10084000B406904200A00E402805904200B00E4031
:040850002C059042A1
:1009280085B0CDF800E08046894601AA1046FFF759
:100938009DFD164A904503D0154A904500D001E028
:10094800019800E002984FEA0912B0FBF2F291B266
:1009580092B2130A9BB298F800201A4388F8002034
:1009680008F10103CAB21A7043014FEA0912B3FB36
:10097800F2F34A0192B29A1AD0B208F10A031A782D
:1009880002431A70DDF800E005B0704700A0064089
:0409980000B0064065
:1009080081B0841C23784FF6EF7212B203EA020218
:100918002270841C0B0122781A43227001B07047A0
:1007680081B001F0020262B1841C01F00203227818
:100778001A432270841C01F0010322781A43227064
:1007880007E0841C23784FF6FD7212B203EA0202D6
:06079800227001B0704761
:0C075C0081B002780A43027001B07047BF
:1007B00081B0C21C117841F00401117001B0704782
:1007A00081B0C21C117841F00801117001B070478E
:1016F00081B0CDF800E0FFF72FFB044A04490A60EF
:101700000020DDF800E001B0704700BFED0D0000E3
:041710000000FF1FB7
:100D580081B0CDF800E003460A48FFF74BFE0A4A87
:100D680040F2000104B402B440F20002194640F215
:100D780000030448FFF70EFE02B0DDF800E001B002
:0C0D8800704700BF00D00640CC200000E7
:1012AC0081B0CDF800E0FFF751FD044A04490A6013
:1012BC000020DDF800E001B0704700BFED0D00002C
:0412CC000000FF1F00
:1012880081B0CDF800E0FFF781FD044A04490A6007
:101298000020DDF800E001B0704700BF450E0000F7
:0412A8000000FF1F24
:100D940081B0CDF800E003460A48FFF72DFE0A4A69
:100DA40040F2000104B402B440F20002194640F2D9
:100DB40000030448FFF7F0FD02B0DDF800E001B0E5
:0C0DC400704700BF00A00640382100006E
:101AA40081B0CDF800E006490648FFF70BFFFFF7C9
:101AB400FBFEFFF7DBFEDDF800E001B0704700BF7E
:081AC400C822000010220000FE
:1018C80081B0CDF800E003460846FFF789FB1846CB
:1018D800FFF76AFB0120034C2468A047DDF800E00D
:0818E80001B070470C00FF1F66
:0C12E80001490860704700BF0808FE4381
:0C12DC0001490860704700BF2C08FE4369
:0C12D00001490860704700BF1010FE4389
:0C17380001490860704700BF1410FE4318
:0C17980001490860704700BF1C10FE43B0
:0C17A40001490860704700BF1810FE43A8
:0C17B00001490860704700BF2800FE439C
:0C17D40001490860704700BF3408FE4364
:0C17C80001490860704700BF0818FE438C
:0C17BC0001490860704700BF0C18FE4394
:0C175C0001490860704700BF2018FE43E0
:0C17500001490860704700BF2418FE43E8
:0C17440001490860704700BF0C08FE431C
:0C17680001490860704700BF4C08FE43B8
:0C178C0001490860704700BF0C10FE43CC
:0C17800001490860704700BF1410FE43D0
:0C17740001490860704700BF1C10FE43D4
:0C0F740001490860704700BF1810FE43E0
:0C0F800001490860704700BF2C00FE43D0
:0C0F680001490860704700BF2008FE43EC
:0C0FA40001490860704700BF4010FE4388
:0C0F980001490860704700BF4410FE4390
:0C0F8C0001490860704700BF2018FE43B8
:0C0F380001490860704700BF2418FE4308
:0C0F200001490860704700BF1808FE433C
:0C0F5C0001490860704700BF2808FE43F0
:0C0F440001490860704700BF0810FE4320
:0C0F2C0001490860704700BF1410FE432C
:0C0F500001490860704700BF1C10FE4300
:0C10900001490860704700BF1810FE43C3
:0C10840001490860704700BF1000FE43E7
:0C10780001490860704700BF1C08FE43DF
:0C10B40001490860704700BF4010FE4377
:0C10A80001490860704700BF4410FE437F
:0C109C0001490860704700BF2018FE43A7
:0C10000001490860704700BF2418FE433F
:100FE800026803490A60011D0A6802490A607047DD
:080FF8001400FF1F1800FF1F89
:100FB00000F2300118310A6807490A6002680749DF
:100FC0000A6000F208010A6805490A60011D0A6802
:100FD00004490A60704700BF0400FF1F0800FF1F9C
:080FE0000C00FF1F1000FF1FB1
:1018AC0081B0CDF800E00120034C2468A047DDF89E
:0C18BC0000E001B0704700BF0800FF1FF3
:1018700081B0CDF800E001200B4C2468A047FFF7B1
:10188000EFFB0020084C2468A047FFF7DDFBFFF7C3
:10189000DBFB0120044C2468A047FFF7D5FBDDF8F3
:0C18A00000E001B0704700BF1000FF1F07
:1010600041F67E27C0F2060700BF00BF7F1EFDD1FC
:0810700000BF00BF00BF704784
:1010480040F6FE07C0F23D0700BF00BF7F1EFDD17E
:0810580000BF00BF00BF70479C
:101A240081B0CDF800E01120FFF784FF4BF2FE37C0
:101A3400C0F2C44700BF00BF7F1EFDD100BF00BF7E
:101A440000BF5020FFF776FF4BF2FE37C0F2C447C9
:101A540000BF00BF7F1EFDD100BF00BF00BFB72085
:101A6400FFF768FF4BF2FE37C0F2C44700BF00BF68
:101A74007F1EFDD100BF00BF00BF5020FFF75AFFFB
:101A84004BF2FE37C0F2C44700BF00BF7F1EFDD13A
:0E1A940000BF00BF00BFDDF800E001B07047EA
:1019380082B0CDF800E001AA20211170511C087076
:101948000020084C2468A04701A908460221FFF797
:1019580059FB0120034C2468A047DDF800E002B0E1
:08196800704700BF0C00FF1FD7
:10100C0083B0CDF800E08AB2014690B283B2421EA2
:10101C0090B26BB10A78D4B2ADF804000291A0B2D0
:10102C00054C2468A0470299BDF80400491CEDE763
:0C103C00DDF800E003B070471400FF1F57
:100EAC0081B0CDF800E082B24FF080610348FFF7CB
:100EBC0045FEDDF800E001B0704700BF00C0024005
:100B480081B000F22C044FF00043236000F234041B
:100B580093B241EA0303236000F22C031C68C4F338
:0A0B6800C07303B9F8E701B070474D
:100E8C0081B0CDF800E082B24FF080610348FFF7EB
:100E9C0055FEDDF800E001B0704700BF00D0024005
:100E240081B0CDF800E082B24FF080610348FFF753
:100E340089FEDDF800E001B0704700BF00C00A4041
:100E440081B0CDF800E081B20348FFF79BFEDDF8E6
:0C0E540000E001B0704700BF00A00640A5
:100B880081B0ADF800100146BDF800000A1D1378C9
:100B9800C3F3C01202B9F9E7CA1D107001B070475B
:100D240081B0CDF800E081B20348FFF72BFFDDF876
:0C0D340000E001B0704700BF00B00640B6
:100D080081B0CDF800E081B20348FFF739FFDDF884
:0C0D180000E001B0704700BF00C00640C2
:100DEC0081B0CDF800E081B20348FFF7C7FEDDF813
:0C0DFC0000E001B0704700BF00D00640CE
:100E080081B0CDF800E081B20348FFF7B9FEDDF804
:0C0E180000E001B0704700BF00A00E40D9
:100DD00081B0CDF800E081B20348FFF7D5FEDDF821
:0C0DE00000E001B0704700BF00B00E4002
:1019700081B01CF8019B0BF8019BBBEB0A0FF8D15F
:0419800001B07047FB
:101B340090B072B6974801909748029097480390E6
:101B440097480490974805909748069097480790BF
:101B5400974808909748099097480A9097480B909F
:101B640097480C90974998480D9098480E900D9876
:101B740000F007000F9001F0010050B94CF2205022
:101B8400934908804DF62810088040F2D2119148FC
:101B940001809148007800F0010050B18F4800782E
:101BA40000F0080020B18D49087840F00800087062
:101BB40021E08B48006840F0005189480160894861
:101BC400006800F48070B0B9864801686FF4705002
:101BD40001EA000040F440718248016081480068D5
:101BE40040F480717F4801607E4801686FF40070A2
:101BF40001407C480160AA217B4801700D9800F0E7
:101C0400100060B9794801786FF0600001407748AE
:101C1400017077480078012800D0FAE71CE00D989D
:101C240000F01000C0B10E997248814208D96021B9
:101C34006E4801706E480078802800D0FAE70BE007
:101C44006A4801786FF06000014068480170684894
:101C54000078012800D0FAE70499674801606748D2
:101C640001686FF440200140029800F440200143D1
:101C740062480160624801686FF440300140039893
:101C840000F4403001435E4801600F9830B10F9872
:101C9400012803D00F98022800D061E0019800F0D9
:101CA400800050B9089800F0400028B10B9800F06B
:101CB4000300002800D100E015E05248006840F419
:101CC40000715048016050480168504801404E4836
:101CD4000160069800F0040028B14D4801684B48A3
:101CE40001404B4801600A994A48017005994A48E5
:101CF4000170059800F0040038B14848007800F0FD
:101D04001000002800D1F8E705E04448007800F00E
:101D1400100000B1F9E74248007800F0BF01C9B2F1
:101D2400069800F0FD0001433D480170079800F05B
:101D3400E0013C48007800F01F000143394801707D
:101D44000199394801700B99384801700F9802289D
:101D540005D13348007840F0020131480170B8E001
:101D6400019800F0800020B90B9800F0030000B146
:101D740065E02448006840F400712248016022486C
:101D840001682248014020480160069800F00400E0
:101D940000F04EB80000000000000C00000001003C
:101DA40000001401220000002400000000000000D4
:101DB40002000000460000000000000000000000D7
:101DC400000000000000000007000000C0D4010073
:101DD4000E2005400020054000F0074002D00740D7
:101DE4003C80044010D0034000E0074001E007407D
:101DF40003E0074080380100448004400070044040
:101E0400048004403880044048900440FFF8FFFEFA
:101E14004C900440084006400040064006400640FE
:101E24000140064003400640005006400C40064076
:101E340028B17A4801687A480140784801600A99D3
:101E4400784801707848007800F0BF01C9B206985C
:101E540000F0FD000143744801700199734801705A
:101E64000B99734801700F98072805D1059840F025
:101E740080017048017002E005996E48017006986F
:101E840000F0040048B10B9800F0030028B96A4838
:101E9400007800F0020000B9F9E7059800F00400AA
:101EA40038B16548007800F01000002800D1F8E748
:101EB40005E06148007800F0100000B1F9E70798E8
:101EC40000F0E0015D48007800F01F0001435B482A
:101ED4000170089800F0BF0159480170099800F09A
:101EE400BF0158480170089800F0400028B15448D8
:101EF400007840F04001524801700F98052806D13F
:101F04004948007840F00201474801701BE00F98EF
:101F1400062803D00F98072800D014E04948007819
:101F240040F04001474801704348007800F0400009
:101F340000B9F9E70F98072805D13E48007800F06A
:101F44003F013C4801700F9818B10F98032800D046
:101F54002CE03948007800F00C0000B1F9E73A4869
:101F6400006840F00101384801604FF00001374833
:101F740001604FF08001364801604FF0050135489B
:101F840001604FF00101324801603148006800F0FF
:101F9400800000B9F9E700212D4801602A48016852
:101FA4006FF001000140284801602AE00F980128E1
:101FB40003D00F98022800D007E01F48007800F0F3
:101FC4000C00042800D0F8E71BE00F98042806D082
:101FD4000F98062803D00F98052800D007E016486C
:101FE400007800F00C00082800D0F8E709E00F980A
:101FF400072806D11048007800F00C000C2800D007
:10200400F8E7154801686FF00F0001400C9800F0E4
:102014000F0001431048016010B070474C90044019
:10202400FFF8FFFE0840064001400640005006400D
:102034000C4006400040064006400640034006406F
:10204400044006400540064038800440080004402F
:0C205400000004400400044048800440E8
:101B000081B002490248016001B07047C0D40100B1
:041B10001C00FF1F97
:081ACC0081B0FEE701B0704794
:101AD40081B072B60849086840F47000086000BF1D
:101AE40000BF00BF00BFF1EE100A40F44000E1EE79
:0C1AF400100A62B601B0704788ED00E0F7
:1022D00000B5DFF810B0DFF810A0FFF753FB00BD2A
:0C22E000704700BF0000FF1F3800FF1F08
:100400000000000000000000FFFFFFFF02FDFFFFF3
:10206000450200004702000046020000FFFFFFFF9C
:102070000000000000000000000000000000000060
:102080000000000000000000000000000000000050
:102090000000000000000800000008000000080028
:1020A000FFFFFFFF00000000000000000000000034
:1020B0000000000000000000000000000000000020
:0C20C00000000000000000000000000014
:1020CC005103000050030000FFFFFFFF0000000061
:1020DC0000000000000000000000000000000000F4
:1020EC0000000000000000000000000000000000E4
:1020FC00000000000000080000000800FFFFFFFFC8
:10210C0000000000000000000000000000000000C3
:10211C0000000000000000000000000000000000B3
:0C212C00000000000000000000000000A7
:102138003103000030030000FFFFFFFF0000000034
:102148000000000000000000000000000000000087
:102158000000000000000000000000000000000077
:10216800000000000000080000000800FFFFFFFF5B
:102178000000000000000000000000000000000057
:102188000000000000000000000000000000000047
:0C2198000000000000000000000000003B
:1021A4006303000062030000FFFFFFFF0000000064
:1021B400000000000000000000000000000000001B
:1021C400000000000000000000000000000000000B
:1021D400000000000000080000000800FFFFFFFFEF
:1021E40000000000000000000000000000000000EB
:1021F40000000000000000000000000000000000DB
:0C220400000000000000000000000000CE
:10221000E9120000DD120000D112000039170000A1
:1022200099170000A5170000B1170000D51700008E
:10223000C9170000BD1700005D170000511700000E
:10224000FFFFFFFFFFFFFFFFFFFFFFFFFFFFFFFF9E
:10225000FFFFFFFFFFFFFFFFFFFFFFFFFFFFFFFF8E
:10226000FFFFFFFFFFFFFFFFFFFFFFFFFFFFFFFF7E
:10227000020000000400000006000000080000004A
:10228000100000002000000040000000800000005E
:10229000000100000002000000040000000800002F
:1022A000001000000020000000400000008000003E
:1022B000020000000300000005000000070000000D
:0822C00040420F0007000080FE
:0822C800AD0E0000FFFFFFFF57
:00000001FF
