:10000000E8EF07F00000000000EF00F00000000043
:0A0010000000000000000000F3D71C
:0C001C0059B002D0899801D089881200E8
:0C00280059B002D08D9201D08D821200E0
:0C00340059B002D08B9801D08B881200CC
:0C00400059B002D0899201D089821200D0
:0C004C0059B002D08B9A01D08B8A1200B0
:0C00580059B002D08B9401D08B841200B0
:0C00640059B002D08B9601D08B861200A0
:0C00700059B002D08B9801D08B88120090
:0C007C0059B002D08B9601D08B86120088
:0C00880059B002D08B9A01D08B8A120074
:1000940059C06AFF016A0150000A05E1000E68B008
:0C00A400010E016EF8D76ACF01F01200C7
:0C00B00059B002D08B9601D08B86120054
:0C00BC0059B002D08B9001D08B80120054
:0C00C80059B002D08B9E01D08B8E12002C
:0C00D40059B002D08B9C01D08B8C120024
:0C00E00059B002D08B9801D08B88120020
:0C00EC0059B002D08A9001D08A80120026
:0C00F80059B002D08B9E01D08B8E1200FC
:0C01040059B002D08B9A01D08B8A1200F7
:0C01100059B002D08F9401D08F841200EF
:0C011C0059B002D08F9001D08F801200EB
:0C01280059B002D08D9001D08D801200E3
:0C01340059B002D08A9401D08A841200D5
:0C01400059B002D08B9601D08B861200C3
:0C014C0059B002D08F9201D08F821200B7
:0C01580059B002D08B9801D08B881200A7
:0C01640059B002D08B9801D08B8812009B
:0C01700059B002D08B9601D08B86120093
:0C017C0059B002D08B9801D08B88120083
:0C01880059B002D08D9401D08D8412007B
:0C01940059B002D08A9201D08A82120079
:0C01A00059B002D0899401D0898412006B
:0C01AC0059B002D08B9601D08B86120057
:0C01B80059B002D08D9601D08D86120047
:0C01C40059B002D08B9C01D08B8C120033
:1001D0000F0121B302D00000FBD759C01CFF120051
:1001E00059C0C9FF016A0150000A05E1000EC7B0FD
:0C01F000010E016EF8D7C9CF01F012001B
:0E01FC00ACB202D00000FCD759C0ADFF12001B
:0C020A0059B002D08B9201D08B82120000
:0C02160059B002D0899001D089801200FC
:10022200FC0E356E010E366E590E376E000E386EAC
:10023200FF0E396EFF0E3A6E000E3B6E000E3C6EE4
:10024200FF0E456EFF0E466E000E476E000E486EA4
:10025200FF0E3D6EFF0E3E6E000E3F6E000E406EB4
:10026200AC8A900EAB6E948E949C9EAA03D0AECFB5
:0602720000F0FBD71200B2
:10027800FF0E1D6EFF0E1E6EFF0E1F6EFF0E206E10
:10028800E00E416E010E426E590E436E000E446E32
:10029800949A5550040A02E1948601D09496948861
:1002A800C66AC79CC79E5550C6125750C6125650AC
:1002B800C712575205E05850000AD8B4C78C03D06B
:0A02C8005852D8A4C78CC68A120051
:1002D200D00E356E010E366E590E376E000E386E28
:1002E200FF0E396EFF0E3A6E000E3B6E000E3C6E34
:1002F200FF0E456EFF0E466E000E476E000E486EF4
:10030200FF0E3D6EFF0E3E6E000E3F6E000E406E03
:100312000F01218B900E226F98849892A4AA03D089
:080322001DCF00F0FBD7120013
:10032A00F250026EF29E0500FF6A0150FE6E005006
:08033A00FD6E02BEF28E1200FE
:1003420021D0CF0EAF6EAC946BDF6AD0670EAF6E6A
:10035200AC9466DF65D0CF0EAF6EAC8461DF60D047
:10036200670EAF6EAC845CDF5BD0440EAF6EAC84C4
:1003720057DF56D0220EAF6EAC8452DF51D0060E3C
:10038200006E57D0000E006E521808E1005051184E
:1003920005E1120E501802E14F50C00AD2E0000EE1
:1003A200006E521808E10050511805E1250E501850
:1003B20002E14F50800ACAE0000E006E521808E1B6
:1003C2000050511805E14B0E501802E14F50000A3F
:1003D200C2E0000E006E521808E10050511805E10B
:1003E200960E501802E14F50000ABAE0000E006E5D
:1003F200521808E10050511805E1E10E501802E1CF
:100402004F50000AB2E05250000A08E15150010A6E
:1004120005E15050C20A02E14F50000AABE0AFD7EB
:10042200FC0E296E010E2A6E590E2B6E000E2C6EDA
:04043200006A12004A
:1004360038D00F0120870D0E1F6F040E1E6F218509
:1004460045DF7DD00F012087060E1F6F820E1E6FBF
:1004560021853CDF74D00F012087030E1F6F400EED
:100466001E6F218533DF6BD00F012087010E1F6FB2
:10047600A00E1E6F21852ADF62D00F012087010E94
:100486001F6F150E1E6F218521DF59D00F012087A2
:100496001F6B8A0E1E6F218519DF51D0060E006E66
:1004A60057D0000E006E521808E10050511805E1B1
:1004B600120E501802E14F50C00ABBE0000E006E4B
:1004C600521808E10050511805E1250E501802E1B6
:1004D6004F50800AB7E0000E006E521808E1005037
:1004E600511805E14B0E501802E14F50000AB3E0D7
:1004F600000E006E521808E10050511805E1960EE4
:10050600501802E14F50000AAFE0000E006E52187C
:1005160008E10050511805E1E10E501802E14F5074
:10052600000AABE05250000A08E15150010A05E109
:100536005050C20A02E14F50000AA8E0AFD7D00ED1
:10054600296E010E2A6E590E2B6E000E2C6E006A55
:02055600120091
:1005580021D0CF0EAF6EAC9460DE6AD0670EAF6E5E
:10056800AC945BDE65D0CF0EAF6EAC8456DE60D047
:10057800670EAF6EAC8451DE5BD0440EAF6EAC84B8
:100588004CDE56D0220EAF6EAC8447DE51D0060E3C
:10059800006E57D0000E006E521808E10050511836
:1005A80005E1120E501802E14F50C00AD2E0000EC9
:1005B800006E521808E10050511805E1250E501838
:1005C80002E14F50800ACAE0000E006E521808E19E
:1005D8000050511805E14B0E501802E14F50000A27
:1005E800C2E0000E006E521808E10050511805E1F3
:1005F800960E501802E14F50000ABAE0000E006E45
:10060800521808E10050511805E1E10E501802E1B6
:100618004F50000AB2E05250000A08E15150010A56
:1006280005E15050C20A02E14F50000AABE0AFD7D3
:10063800FC0E296E010E2A6E590E2B6E000E2C6EC2
:04064800006A120032
:10064C004FC0F6FF50C0F7FF51C0F8FF0900F5CFBF
:10065C0055F0040E4F24F66E000E5020F76E000E6F
:10066C005120F86E0900F5CF56F0080E4F24F66EA7
:10067C00000E5020F76E000E5120F86E0900F5CFD9
:10068C0057F00C0E4F24F66E000E5020F76E000E35
:10069C005120F86E0900F5CF58F0E8DD000E006E21
:0206AC0012003A
:1006AE004DD050B002D0929201D092820F0125937C
:1006BE006AD050B002D0929801D0928864D050B0D7
:1006CE0002D0969201D096825ED050B002D094960F
:1006DE0001D0948658D050B002D0949801D094880E
:1006EE0052D050B002D0949A01D0948A4CD050B0CF
:1006FE0002D0949401D0948446D050B002D09392FC
:10070E0001D0938240D050B002D0949E01D0948EEE
:10071E003AD050B002D0949C01D0948C34D050B0CA
:10072E0002D0949601D094862ED050B002D09498D8
:10073E0001D0948828D0010E006E27D04F50000AA9
:10074E00B0E04F50010AB5E04F50020AB8E04F50EA
:10075E00030ABBE04F50040ABEE04F50050AC1E049
:10076E004F50060AC4E04F50070AC7E04F50080A20
:10077E00CAE04F50090ACDE04F500A0AD0E04F5060
:0C078E000B0AD3E0D8D7000E006E12005A
:10079A004DD050B002D0929001D092800F01259195
:1007AA006AD050B002D0949001D0948064D050B0F6
:1007BA0002D0969001D096805ED050B002D0949626
:1007CA0001D0948658D050B002D0949801D0948821
:1007DA0052D050B002D0949A01D0948A4CD050B0E2
:1007EA0002D0949201D0948246D050B002D0939015
:1007FA0001D0938040D050B002D0949E01D0948E04
:10080A003AD050B002D0949C01D0948C34D050B0DD
:10081A0002D0949601D094862ED050B002D09498EB
:10082A0001D0948828D0010E006E27D04F50000ABC
:10083A00B0E04F50010AB5E04F50020AB8E04F50FD
:10084A00030ABBE04F50040ABEE04F50050AC1E05C
:10085A004F50060AC4E04F50070AC7E04F50080A33
:10086A00CAE04F50090ACDE04F500A0AD0E04F5073
:0C087A000B0AD3E0D8D7000E006E12006D
:1008860051D050B002D0929401D092840F01259598
:100896006ED050B002D0969601D0968668D050B0F1
:1008A60002D0969401D0968462D050B002D094962D
:1008B60001D094865CD050B002D0949801D0948830
:1008C60056D050B002D0949A01D0948A50D050B0ED
:1008D60002D0989001D098804AD050B002D093941C
:1008E60001D0938444D050B002D0989401D098841B
:1008F6000F0123953CD050B002D0989201D0988237
:100906000F01239334D050B002D0949601D0948630
:100916002ED050B002D0949801D0948828D0010EE1
:10092600006E27D04F50000AACE04F50010AB1E0EC
:100936004F50020AB4E04F50030AB7E04F50040A82
:10094600BAE04F50050ABDE04F50060AC0E04F50CE
:10095600070AC3E04F50080AC6E04F50090ACBE029
:100966004F500A0AD0E04F500B0AD3E0D8D7000EFA
:04097600006E1200FD
:10097A004FC0F6FF50C0F7FF51C0F8FF0900F5CF8E
:10098A0055F0040E4F24F66E000E5020F76E000E3E
:10099A005120F86E0900F5CF56F0080E4F24F66E76
:1009AA00000E5020F76E000E5120F86E0900F5CFA8
:1009BA0057F00C0E4F24F66E000E5020F76E000E04
:1009CA005120F86E0900F5CF58F051DC000E006E88
:0209DA00120009
:1009DC004FC0F6FF50C0F7FF51C0F8FF0900F5CF2C
:1009EC0055F0040E4F24F66E000E5020F76E000EDC
:1009FC005120F86E0900F5CF56F0080E4F24F66E14
:100A0C00000E5020F76E000E5120F86E0900F5CF45
:100A1C0057F00C0E4F24F66E000E5020F76E000EA1
:100A2C005120F86E0900F5CF58F020DC000E006E56
:020A3C001200A6
:100A3E0027D0CF0EAF6EAC9411EC01F06FD0670ED5
:100A4E00AF6EAC9411EC01F069D0CF0EAF6EAC84EA
:100A5E0011EC01F063D0670EAF6EAC8411EC01F0B7
:100A6E005DD0440EAF6EAC8411EC01F057D0220E67
:100A7E00AF6EAC8411EC01F051D0060E006E57D063
:100A8E00000E006E521808E10050511805E1120ECA
:100A9E00501802E14F50C00ACCE0000E006E521802
:100AAE0008E10050511805E1250E501802E14F5093
:100ABE00800AC5E0000E006E521808E10050511871
:100ACE0005E14B0E501802E14F50000ABEE0000E39
:100ADE00006E521808E10050511805E1960E50189C
:100AEE0002E14F50000AB7E0000E006E521808E106
:100AFE000050511805E1E10E501802E14F50000A66
:100B0E00B0E05250000A08E15150010A05E1505080
:100B1E00C20A02E14F50000AAAE0AFD7FC0E296EBE
:100B2E00010E2A6E590E2B6E000E2C6E006A1200EC
:100B3E00D00E0C6EC90E0D6E0D2EFED70C2EFCD7E0
:060B4E000000000012008F
:100B5400090E0B6E1E0E0C6EE40E0D6E0D2EFED7DE
:0C0B64000C2EFCD70B2EFAD7000012005C
:100B70004FC053F050C054F051C000F052C001F0CB
:100B8000010E515E000E525A0050011013E033C0A6
:100B9000E1FF34C0E2FF53C0E9FF54C0EAFFEECFEB
:100BA000E6FF31C000F032C001F095EC01F0534A8D
:060BB000542AE2D71200F6
:100BB600300E4F24006E000E5020016E000E5120A4
:100BC600026E180E0024F66E000E0120F76E000E5F
:100BD6000220F86E0900F5CF21F00900F5CF22F0CA
:100BE6000900F5CF23F00900F5CF24F04FC0F6FF3A
:100BF60050C0F7FF51C0F8FF0900F5CF15F0090006
:100C0600F5CF16F00900F5CF17F00900F5CF18F06B
:100C1600080E4F24F66E000E5020F76E000E51207F
:100C2600F86E0900F5CF25F00900F5CF26F009008A
:100C3600F5CF27F00900F5CF28F0040E4F24F66E05
:100C4600000E5020F76E000E5120F86E0900F5CF09
:100C56002DF00900F5CF2EF00900F5CF2FF0090091
:060C6600F5CF30F0120092
:100C6C004FC0F6FF50C0F7FF51C0F8FF0900F5CF99
:100C7C0031F00900F5CF32F00900F5CF33F009005F
:100C8C00F5CF34F0040E4F24F66E000E5020F76EA4
:100C9C00000E5120F86E0900F5CF19F00900F5CFC0
:100CAC001AF00900F5CF1BF00900F5CF1CF012006B
:100CBC001BD04AC04FF04BC050F04CC051F088DEF6
:100CCC001DD04AC04FF04BC050F04CC051F04FDE1D
:100CDC0015D04AC04FF04BC050F04CC051F0B0DCB6
:100CEC000DD0010E006E0AD04950000AE2E04950C6
:0E0CFC00010AE7E04950020AECE0F3D71200CB
:100D0A0015D04AC04FF04BC050F042DD19D04AC04E
:100D1A004FF04BC050F0C6DC13D04AC04FF04BC066
:100D2A0050F0ACDD0DD0010E006E0AD04950000A19
:100D3A00E8E04950010AEBE04950020AEEE0F3D735
:020D4A00120095
:100D4C004A6A49C04BF0200E4C6E49C04DF027C08A
:100D5C00E1FF28C0E2FFE66A25C000F026C001F0E2
:100D6C0095EC01F04A0E4F6E000E506E040E516E53
:100D7C00000E526EF7DE27C0E1FF28C0E2FF010E25
:100D8C00E66E25C000F026C001F095EC01F01200D3
:100D9C004CC04FF04DC050F04EC051F061DF49C017
:100DAC004FF04AC050F04BC051F0FFDE27C0E1FFBE
:100DBC0028C0E2FF010EE66E25C000F026C001F04F
:060DCC0095EC01F012009D
:100DD2002ED04AC04FF04BC050F04CC051F04DC025
:100DE20052F0A1EC01F030D04AC04FF04BC050F0AD
:100DF2004CC051F04DC052F0ACEC02F025D04AC0CC
:100E02004FF04BC050F04CC051F04DC052F01BECB3
:100E120002F01AD04AC04FF04BC050F04CC051F013
:100E22004DC052F00BDE10D0010E006E0DD04950B5
:100E3200000ACFE04950010AD7E04950020ADFE038
:0A0E42004950100AE7E0F0D7120053
:100E4C0017C0E1FF18C0E2FF010EE66E15C000F0FE
:0A0E5C0016C001F095EC01F0120041
:100E66002FC0E1FF30C0E2FF010EE66E2DC000F09C
:100E76002EC001F095EC01F05FDE2FC0E1FF30C01F
:100E8600E2FFE66A2DC000F02EC001F095EC01F0FD
:100E96005EDE5DDE2FC0E1FF30C0E2FF010EE66ED2
:100EA6002DC000F02EC001F095EC01F050DE1200CE
:100EB600496A060E4A6E010E4B6E24DF496A4A6A7B
:100EC6004B6A20DF496A010E4A6E4B6A1BDF496A8C
:100ED600020E4A6E4B6A16DF496A3A0E4A6E100EC9
:100EE6004B6E000E4C6EE7DE100E496E800E4A6E9B
:100EF600250E4B6E000E4C6E4D6E68DF090E0B6EA6
:100F06001E0E0C6EE40E0D6E0D2EFED70C2EFCD7AB
:080F16000B2EFAD700001200B7
:100F1E000900F5CFE6FF0006FBE10106F9E112003C
:100F2E00110E496E0CDFA30E0B6E570E0C6E020ED9
:100F3E000D6E0D2EFED70C2EFCD70B2EFAD7000001
:100F4E00500E496EFCDEA30E0B6E570E0C6E020E8B
:100F5E000D6E0D2EFED70C2EFCD70B2EFAD70000E1
:100F6E00B70E496EECDEA30E0B6E570E0C6E020E14
:100F7E000D6E0D2EFED70C2EFCD70B2EFAD70000C1
:100F8E00500E496EDCDEA30E0B6E570E0C6E020E6B
:100F9E000D6E0D2EFED70C2EFCD70B2EFAD70000A1
:020FAE0012002F
:100FB000DA0E496E0F0E4A6E000E4B6E4A0E4C6EE4
:100FC000100E4D6E000E4E6EE9DE40DF4CDF12005B
:0A0FD00072DFEEDFACDFFED7FFD7C3
:100FDA0016025900BC00590028015900B0005900F6
:100FEA00E0005900880059000A025900EC00590033
:100FFA00C8005900D40059007C0059003400590037
:10100A00FFFFFFFFFFFFFFFFFFFFFFFFFFFFFFFFE6
:10101A00FFFFFFFFFFFFFFFFFFFFFFFFFFFFFFFFD6
:10102A00FFFFFFFFFFFFFFFFFFFFFFFFFFFFFFFFC6
:10103A0002000000000000000000000001000000A3
:08104A00E0015900FFFFFFFF68
:020000040030CA
:0E00000015137F7CF98B91FFFFC0FFE0FF40DE
:00000001FF
